{
  "contractName": "Migrations",
  "abi": [
    {
      "inputs": [],
      "payable": false,
      "stateMutability": "nonpayable",
      "type": "constructor"
    },
    {
      "constant": true,
      "inputs": [],
      "name": "ContractOwner",
      "outputs": [
        {
          "internalType": "address",
          "name": "",
          "type": "address"
        }
      ],
      "payable": false,
      "stateMutability": "view",
      "type": "function"
    },
    {
      "constant": true,
      "inputs": [],
      "name": "last_completed_migration",
      "outputs": [
        {
          "internalType": "uint256",
          "name": "",
          "type": "uint256"
        }
      ],
      "payable": false,
      "stateMutability": "view",
      "type": "function"
    },
    {
      "constant": false,
      "inputs": [
        {
          "internalType": "address",
          "name": "UserAddress",
          "type": "address"
        },
        {
          "internalType": "string",
          "name": "FullName",
          "type": "string"
        },
        {
          "internalType": "string",
          "name": "DocNum",
          "type": "string"
        },
        {
          "internalType": "string",
          "name": "IpfsHash",
          "type": "string"
        }
      ],
      "name": "AddUser",
      "outputs": [],
      "payable": false,
      "stateMutability": "nonpayable",
      "type": "function"
    },
    {
      "constant": false,
      "inputs": [
        {
          "internalType": "uint256",
          "name": "completed",
          "type": "uint256"
        }
      ],
      "name": "setCompleted",
      "outputs": [],
      "payable": false,
      "stateMutability": "nonpayable",
      "type": "function"
    }
  ],
  "bytecode": "0x608060405234801561001057600080fd5b5033600160006101000a81548173ffffffffffffffffffffffffffffffffffffffff021916908373ffffffffffffffffffffffffffffffffffffffff1602179055506104e5806100616000396000f3fe608060405234801561001057600080fd5b506004361061004c5760003560e01c8063445df0ac146100515780634ac320751461006f5780635a63fbc914610278578063fdacd576146102c2575b600080fd5b6100596102f0565b6040518082815260200191505060405180910390f35b6102766004803603608081101561008557600080fd5b81019080803573ffffffffffffffffffffffffffffffffffffffff169060200190929190803590602001906401000000008111156100c257600080fd5b8201836020820111156100d457600080fd5b803590602001918460018302840111640100000000831117156100f657600080fd5b91908080601f016020809104026020016040519081016040528093929190818152602001838380828437600081840152601f19601f8201169050808301925050505050505091929192908035906020019064010000000081111561015957600080fd5b82018360208201111561016b57600080fd5b8035906020019184600183028401116401000000008311171561018d57600080fd5b91908080601f016020809104026020016040519081016040528093929190818152602001838380828437600081840152601f19601f820116905080830192505050505050509192919290803590602001906401000000008111156101f057600080fd5b82018360208201111561020257600080fd5b8035906020019184600183028401116401000000008311171561022457600080fd5b91908080601f016020809104026020016040519081016040528093929190818152602001838380828437600081840152601f19601f8201169050808301925050505050505091929192905050506102f6565b005b6102806103db565b604051808273ffffffffffffffffffffffffffffffffffffffff1673ffffffffffffffffffffffffffffffffffffffff16815260200191505060405180910390f35b6102ee600480360360208110156102d857600080fd5b8101908080359060200190929190505050610401565b005b60005481565b600260008573ffffffffffffffffffffffffffffffffffffffff1673ffffffffffffffffffffffffffffffffffffffff16815260200190815260200160002060405180606001604052808581526020018481526020018381525090806001815401808255809150509060018203906000526020600020906003020160009091929091909150600082015181600001908051906020019061039792919061040b565b5060208201518160010190805190602001906103b492919061040b565b5060408201518160020190805190602001906103d192919061040b565b5050505050505050565b600160009054906101000a900473ffffffffffffffffffffffffffffffffffffffff1681565b8060008190555050565b828054600181600116156101000203166002900490600052602060002090601f016020900481019282601f1061044c57805160ff191683800117855561047a565b8280016001018555821561047a579182015b8281111561047957825182559160200191906001019061045e565b5b509050610487919061048b565b5090565b6104ad91905b808211156104a9576000816000905550600101610491565b5090565b9056fea265627a7a723158207f1892ea2d9ac7a53bb99d8ec6d18c816f16ef1a453c8ed2231f650036b6fb8764736f6c63430005100032",
  "source": "// SPDX-License-Identifier: MIT\npragma solidity >=0.4.22 <0.9.0;\n\ncontract Migrations {\n  \n  uint public last_completed_migration;\n  address public ContractOwner;\n  \n  constructor() public {\n        ContractOwner = msg.sender;\n    }\n  \n\n    struct UserInfo{\n\t\tstring FullName;\n\t\tstring DocNum;\n\t\tstring IpfsHash;\n    }\n  mapping(address => UserInfo[]) UserMap;\n  function AddUser(address UserAddress,string memory FullName,string memory DocNum,string memory IpfsHash) public {\n        UserMap[UserAddress].push(UserInfo(FullName,DocNum,IpfsHash));\n        \n    } \n  \n  \n  function setCompleted(uint completed) public {\n    last_completed_migration = completed;\n  } \n\n\n}\n",
  "sourcePath": "E:\\training\\truffle\\trufftrain\\contracts\\Migrations.sol",
  "compiler": {
    "name": "solc",
    "version": "0.5.16+commit.9c3226ce.Emscripten.clang"
  },
  "schemaVersion": "3.4.3",
  "updatedAt": "2021-11-02T11:51:02.060Z",
  "devdoc": {
    "methods": {}
  },
  "userdoc": {
    "methods": {}
  }
}